Component: ARM Compiler 5.06 update 5 (build 528) Tool: armlink [4d35e2]

==============================================================================

Section Cross References

    main.o(i.main) refers to rt_cmsis.o(i.osKernelInitialize) for osKernelInitialize
    main.o(i.main) refers to threads_roundrobin.o(i.threads_init) for threads_init
    main.o(i.main) refers to rt_cmsis.o(i.osKernelStart) for osKernelStart
    threads_roundrobin.o(i.thread1) refers to hal_gpio.o(i.hal_gpio_bit_set) for hal_gpio_bit_set
    threads_roundrobin.o(i.thread1) refers to threads_roundrobin.o(i.wait_blocking) for wait_blocking
    threads_roundrobin.o(i.thread2) refers to hal_gpio.o(i.hal_gpio_bit_reset) for hal_gpio_bit_reset
    threads_roundrobin.o(i.thread2) refers to threads_roundrobin.o(i.wait_blocking) for wait_blocking
    threads_roundrobin.o(i.threads_init) refers to uart.o(i.uart_init) for uart_init
    threads_roundrobin.o(i.threads_init) refers to hal_gpio.o(i.hal_gpio_init_output) for hal_gpio_init_output
    threads_roundrobin.o(i.threads_init) refers to rt_cmsis.o(i.osThreadCreate) for osThreadCreate
    threads_roundrobin.o(i.threads_init) refers to threads_roundrobin.o(.constdata) for os_thread_def_thread1
    threads_roundrobin.o(.constdata) refers to threads_roundrobin.o(i.thread1) for thread1
    threads_roundrobin.o(.constdata) refers to threads_roundrobin.o(i.thread2) for thread2
    uart.o(i.uart_init) refers to hal_gpio.o(i.hal_gpio_init_alternate) for hal_gpio_init_alternate
    rtx_conf_cm.o(.emb_text) refers to rt_cmsis.o(i.osKernelInitialize) for osKernelInitialize
    rtx_conf_cm.o(.emb_text) refers to rt_cmsis.o(i.osThreadCreate) for osThreadCreate
    rtx_conf_cm.o(.emb_text) refers to rt_cmsis.o(i.osKernelStart) for osKernelStart
    rtx_conf_cm.o(.emb_text) refers to exit.o(.text) for exit
==============================================================================

Removing Unused input sections from the image.

    Removing uart.o(i.stdout_putchar), (28 bytes).
    Removing rtx_conf_cm.o(.emb_text), (28 bytes).
    Removing rtx_conf_cm.o(i.__user_perthread_libspace), (44 bytes).
    Removing rtx_conf_cm.o(i._mutex_initialize), (44 bytes).
    Removing retarget_io.o(i._sys_close), (38 bytes).
    Removing retarget_io.o(i._sys_flen), (36 bytes).
    Removing retarget_io.o(i._sys_istty), (36 bytes).
    Removing retarget_io.o(i._sys_open), (104 bytes).
    Removing retarget_io.o(i._sys_read), (46 bytes).
    Removing retarget_io.o(i._sys_seek), (44 bytes).
    Removing retarget_io.o(i._sys_write), (70 bytes).
    Removing retarget_io.o(.constdata), (23 bytes).
    Removing startup_ctboard.o(HEAP), (2048 bytes).
    Removing system_ctboard.o(i.system_enter_sleep), (2 bytes).
    Removing system_ctboard.o(i.system_enter_standby), (2 bytes).
    Removing system_ctboard.o(i.system_enter_stop), (2 bytes).
    Removing hal_fmc.o(i.hal_fmc_init_sram), (416 bytes).
    Removing hal_fmc.o(i.hal_fmc_reset), (92 bytes).
==============================================================================

Image Symbol Table

    Local Symbols

    Symbol Name                              Value     Ov Type        Size  Object(Section)

    ../clib/angel/boardlib.s                 0x00000000   Number         0  boardshut.o ABSOLUTE
    ../clib/angel/kernel.s                   0x00000000   Number         0  rtexit.o ABSOLUTE
    ../clib/angel/kernel.s                   0x00000000   Number         0  rtexit2.o ABSOLUTE
    ../clib/angel/rt.s                       0x00000000   Number         0  aeabi_ldiv0_sigfpe.o ABSOLUTE
    ../clib/angel/rt.s                       0x00000000   Number         0  rt_div0.o ABSOLUTE
    ../clib/angel/rt.s                       0x00000000   Number         0  rt_raise.o ABSOLUTE
    ../clib/angel/rt.s                       0x00000000   Number         0  aeabi_ldiv0.o ABSOLUTE
    ../clib/angel/sys.s                      0x00000000   Number         0  libspace.o ABSOLUTE
    ../clib/angel/sys.s                      0x00000000   Number         0  use_no_semi.o ABSOLUTE
    ../clib/angel/sys.s                      0x00000000   Number         0  indicate_semi.o ABSOLUTE
    ../clib/angel/sysapp.c                   0x00000000   Number         0  sys_exit.o ABSOLUTE
    ../clib/angel/sysapp.c                   0x00000000   Number         0  sys_wrch.o ABSOLUTE
    ../clib/libinit.s                        0x00000000   Number         0  libshutdown.o ABSOLUTE
    ../clib/libinit.s                        0x00000000   Number         0  libshutdown2.o ABSOLUTE
    ../clib/longlong.s                       0x00000000   Number         0  lludivv7m.o ABSOLUTE
    ../clib/memcpset.s                       0x00000000   Number         0  strcmpv7m.o ABSOLUTE
    ../clib/signal.c                         0x00000000   Number         0  defsig_fpe_outer.o ABSOLUTE
    ../clib/signal.c                         0x00000000   Number         0  defsig_abrt_inner.o ABSOLUTE
    ../clib/signal.c                         0x00000000   Number         0  defsig_fpe_formal.o ABSOLUTE
    ../clib/signal.c                         0x00000000   Number         0  defsig_rtred_inner.o ABSOLUTE
    ../clib/signal.c                         0x00000000   Number         0  defsig_general.o ABSOLUTE
    ../clib/signal.c                         0x00000000   Number         0  defsig_rtmem_inner.o ABSOLUTE
    ../clib/signal.c                         0x00000000   Number         0  defsig_exit.o ABSOLUTE
    ../clib/signal.c                         0x00000000   Number         0  defsig_fpe_inner.o ABSOLUTE
    ../clib/signal.c                         0x00000000   Number         0  defsig_other.o ABSOLUTE
    ../clib/signal.c                         0x00000000   Number         0  defsig_stak_inner.o ABSOLUTE
    ../clib/signal.c                         0x00000000   Number         0  __raise.o ABSOLUTE
    ../clib/signal.c                         0x00000000   Number         0  defsig_pvfn_inner.o ABSOLUTE
    ../clib/signal.c                         0x00000000   Number         0  defsig_segv_inner.o ABSOLUTE
    ../clib/signal.c                         0x00000000   Number         0  defsig_cppl_inner.o ABSOLUTE
    ../clib/signal.s                         0x00000000   Number         0  defsig.o ABSOLUTE
    ../clib/stdlib.c                         0x00000000   Number         0  exit.o ABSOLUTE
    ..\App\main.c                            0x00000000   Number         0  main.o ABSOLUTE
    ..\App\threads_roundrobin.c              0x00000000   Number         0  threads_roundrobin.o ABSOLUTE
    ..\App\uart.c                            0x00000000   Number         0  uart.o ABSOLUTE
    ..\HAL_CM.c                              0x00000000   Number         0  hal_cm.o ABSOLUTE
    ..\\rt_CMSIS.c                           0x00000000   Number         0  rt_cmsis.o ABSOLUTE
    ..\\rt_System.c                          0x00000000   Number         0  rt_system.o ABSOLUTE
    ..\rt_CMSIS.c                            0x00000000   Number         0  rt_cmsis.o ABSOLUTE
    ..\rt_Event.c                            0x00000000   Number         0  rt_event.o ABSOLUTE
    ..\rt_List.c                             0x00000000   Number         0  rt_list.o ABSOLUTE
    ..\rt_Mailbox.c                          0x00000000   Number         0  rt_mailbox.o ABSOLUTE
    ..\rt_MemBox.c                           0x00000000   Number         0  rt_membox.o ABSOLUTE
    ..\rt_Memory.c                           0x00000000   Number         0  rt_memory.o ABSOLUTE
    ..\rt_Mutex.c                            0x00000000   Number         0  rt_mutex.o ABSOLUTE
    ..\rt_Robin.c                            0x00000000   Number         0  rt_robin.o ABSOLUTE
    ..\rt_Semaphore.c                        0x00000000   Number         0  rt_semaphore.o ABSOLUTE
    ..\rt_System.c                           0x00000000   Number         0  rt_system.o ABSOLUTE
    ..\rt_Task.c                             0x00000000   Number         0  rt_task.o ABSOLUTE
    ..\rt_Time.c                             0x00000000   Number         0  rt_time.o ABSOLUTE
    C:\Keil_v5\ARM\PACK\Keil\ARM_Compiler\1.3.2\Source\retarget_io.c 0x00000000   Number         0  retarget_io.o ABSOLUTE
    HAL_CM4.c                                0x00000000   Number         0  hal_cm4.o ABSOLUTE
    HAL_CM4.c                                0x00000000   Number         0  hal_cm4.o ABSOLUTE
    RTE\CMSIS\RTX_Conf_CM.c                  0x00000000   Number         0  rtx_conf_cm.o ABSOLUTE
    RTE\Device\CT_Board_HS14_M4\datainit_ctboard.s 0x00000000   Number         0  datainit_ctboard.o ABSOLUTE
    RTE\Device\CT_Board_HS14_M4\startup_ctboard.s 0x00000000   Number         0  startup_ctboard.o ABSOLUTE
    RTE\Device\CT_Board_HS14_M4\system_ctboard.c 0x00000000   Number         0  system_ctboard.o ABSOLUTE
    RTE\HAL\CT_Board_HS14_M4\hal_fmc.c       0x00000000   Number         0  hal_fmc.o ABSOLUTE
    RTE\HAL\CT_Board_HS14_M4\hal_gpio.c      0x00000000   Number         0  hal_gpio.o ABSOLUTE
    RTE\HAL\CT_Board_HS14_M4\hal_pwr.c       0x00000000   Number         0  hal_pwr.o ABSOLUTE
    RTE\HAL\CT_Board_HS14_M4\hal_rcc.c       0x00000000   Number         0  hal_rcc.o ABSOLUTE
    RTE\\CMSIS\\RTX_Conf_CM.c                0x00000000   Number         0  rtx_conf_cm.o ABSOLUTE
    SVC_Table.s                              0x00000000   Number         0  svc_table.o ABSOLUTE
    dc.s                                     0x00000000   Number         0  dc.o ABSOLUTE
    RESET                                    0x08000000   Section      428  startup_ctboard.o(RESET)
    .emb_text                                0x080001ac   Section      408  hal_cm4.o(.emb_text)
    $v0                                      0x080001ac   Number         0  hal_cm4.o(.emb_text)
    .text                                    0x08000344   Section      124  datainit_ctboard.o(.text)
    $v0                                      0x08000344   Number         0  datainit_ctboard.o(.text)
    .text                                    0x080003c0   Section       36  startup_ctboard.o(.text)
    $v0                                      0x080003c0   Number         0  startup_ctboard.o(.text)
    SVC_TABLE                                0x080003e4   Section        4  svc_table.o(SVC_TABLE)
    i.__system                               0x080003e8   Section        0  system_ctboard.o(i.__system)
    i._init_box                              0x080003f0   Section        0  rt_membox.o(i._init_box)
    i._mutex_acquire                         0x08000438   Section        0  rtx_conf_cm.o(i._mutex_acquire)
    __tagsym$$used                           0x08000439   Number         0  rtx_conf_cm.o(i._mutex_acquire)
    i._mutex_release                         0x08000458   Section        0  rtx_conf_cm.o(i._mutex_release)
    __tagsym$$used                           0x08000459   Number         0  rtx_conf_cm.o(i._mutex_release)
    i.create_pattern_mask                    0x08000474   Section        0  hal_gpio.o(i.create_pattern_mask)
    create_pattern_mask                      0x08000475   Thumb Code    78  hal_gpio.o(i.create_pattern_mask)
    i.dbg_init                               0x080004c4   Section        0  hal_cm.o(i.dbg_init)
    i.dbg_task_notify                        0x080004f4   Section        0  hal_cm.o(i.dbg_task_notify)
    i.dbg_task_switch                        0x08000514   Section        0  hal_cm.o(i.dbg_task_switch)
    i.hal_gpio_bit_reset                     0x08000524   Section        0  hal_gpio.o(i.hal_gpio_bit_reset)
    i.hal_gpio_bit_set                       0x0800053a   Section        0  hal_gpio.o(i.hal_gpio_bit_set)
    i.hal_gpio_init_alternate                0x08000550   Section        0  hal_gpio.o(i.hal_gpio_init_alternate)
    i.hal_gpio_init_output                   0x080005d4   Section        0  hal_gpio.o(i.hal_gpio_init_output)
    i.hal_pwr_set_overdrive                  0x08000674   Section        0  hal_pwr.o(i.hal_pwr_set_overdrive)
    i.hal_rcc_reset                          0x0800067c   Section        0  hal_rcc.o(i.hal_rcc_reset)
    i.hal_rcc_set_osc                        0x08000758   Section        0  hal_rcc.o(i.hal_rcc_set_osc)
    i.hal_rcc_setup_clock                    0x080007e4   Section        0  hal_rcc.o(i.hal_rcc_setup_clock)
    i.hal_rcc_setup_pll                      0x08000870   Section        0  hal_rcc.o(i.hal_rcc_setup_pll)
    i.init_FMC_SRAM                          0x080009b8   Section        0  system_ctboard.o(i.init_FMC_SRAM)
    init_FMC_SRAM                            0x080009b9   Thumb Code     2  system_ctboard.o(i.init_FMC_SRAM)
    i.init_FPU                               0x080009bc   Section        0  system_ctboard.o(i.init_FPU)
    init_FPU                                 0x080009bd   Thumb Code    14  system_ctboard.o(i.init_FPU)
    i.init_LCD                               0x080009d0   Section        0  system_ctboard.o(i.init_LCD)
    init_LCD                                 0x080009d1   Thumb Code     2  system_ctboard.o(i.init_LCD)
    i.init_SystemClock                       0x080009d4   Section        0  system_ctboard.o(i.init_SystemClock)
    init_SystemClock                         0x080009d5   Thumb Code   170  system_ctboard.o(i.init_SystemClock)
    i.intercept_overwrite_register           0x08000a8c   Section        0  hal_gpio.o(i.intercept_overwrite_register)
    intercept_overwrite_register             0x08000a8d   Thumb Code    22  hal_gpio.o(i.intercept_overwrite_register)
    i.isrMessageGet                          0x08000aac   Section        0  rt_cmsis.o(i.isrMessageGet)
    i.isrMessagePut                          0x08000ad6   Section        0  rt_cmsis.o(i.isrMessagePut)
    i.isr_mbx_receive                        0x08000b04   Section        0  rt_mailbox.o(i.isr_mbx_receive)
    i.isr_mbx_send                           0x08000b5a   Section        0  rt_mailbox.o(i.isr_mbx_send)
    i.main                                   0x08000b68   Section        0  main.o(i.main)
    i.osKernelInitialize                     0x08000b78   Section        0  rt_cmsis.o(i.osKernelInitialize)
    i.osKernelStart                          0x08000b9c   Section        0  rt_cmsis.o(i.osKernelStart)
    i.osMessageGet                           0x08000c08   Section        0  rt_cmsis.o(i.osMessageGet)
    i.osThreadCreate                         0x08000c20   Section        0  rt_cmsis.o(i.osThreadCreate)
    i.osThreadExit                           0x08000c4c   Section        0  rt_cmsis.o(i.osThreadExit)
    i.osTimerCall                            0x08000c64   Section        0  rt_cmsis.o(i.osTimerCall)
    i.osTimerThread                          0x08000c70   Section        0  rt_cmsis.o(i.osTimerThread)
    i.os_error                               0x08000c9c   Section        0  rtx_conf_cm.o(i.os_error)
    i.os_idle_demon                          0x08000cbe   Section        0  rtx_conf_cm.o(i.os_idle_demon)
    i.os_tick_init                           0x08000cc4   Section        0  rt_system.o(i.os_tick_init)
    i.os_tick_irqack                         0x08000cec   Section        0  rt_system.o(i.os_tick_irqack)
    i.rt_alloc_box                           0x08000cee   Section        0  rt_membox.o(i.rt_alloc_box)
    i.rt_alloc_mem                           0x08000d08   Section        0  rt_memory.o(i.rt_alloc_mem)
    i.rt_block                               0x08000d48   Section        0  rt_task.o(i.rt_block)
    i.rt_chk_robin                           0x08000d80   Section        0  rt_robin.o(i.rt_chk_robin)
    i.rt_dec_dly                             0x08000dc8   Section        0  rt_list.o(i.rt_dec_dly)
    i.rt_dispatch                            0x08000e38   Section        0  rt_task.o(i.rt_dispatch)
    i.rt_evt_psh                             0x08000e7c   Section        0  rt_event.o(i.rt_evt_psh)
    i.rt_free_box                            0x08000ecc   Section        0  rt_membox.o(i.rt_free_box)
    i.rt_free_mem                            0x08000ef8   Section        0  rt_memory.o(i.rt_free_mem)
    i.rt_get_first                           0x08000f20   Section        0  rt_list.o(i.rt_get_first)
    i.rt_id2obj                              0x08000f48   Section        0  rt_cmsis.o(i.rt_id2obj)
    rt_id2obj                                0x08000f49   Thumb Code     8  rt_cmsis.o(i.rt_id2obj)
    i.rt_init_context                        0x08000f50   Section        0  rt_task.o(i.rt_init_context)
    rt_init_context                          0x08000f51   Thumb Code    66  rt_task.o(i.rt_init_context)
    i.rt_init_mem                            0x08000f98   Section        0  rt_memory.o(i.rt_init_mem)
    i.rt_init_robin                          0x08000fb4   Section        0  rt_robin.o(i.rt_init_robin)
    i.rt_init_stack                          0x08000fcc   Section        0  hal_cm.o(i.rt_init_stack)
    i.rt_mbx_check                           0x0800104c   Section        0  rt_mailbox.o(i.rt_mbx_check)
    i.rt_mbx_init                            0x08001054   Section        0  rt_mailbox.o(i.rt_mbx_init)
    i.rt_mbx_psh                             0x08001070   Section        0  rt_mailbox.o(i.rt_mbx_psh)
    i.rt_mbx_wait                            0x08001160   Section        0  rt_mailbox.o(i.rt_mbx_wait)
    i.rt_ms2tick                             0x08001214   Section        0  rt_cmsis.o(i.rt_ms2tick)
    rt_ms2tick                               0x08001215   Thumb Code    58  rt_cmsis.o(i.rt_ms2tick)
    i.rt_mut_release                         0x08001258   Section        0  rt_mutex.o(i.rt_mut_release)
    i.rt_mut_wait                            0x08001330   Section        0  rt_mutex.o(i.rt_mut_wait)
    i.rt_pop_req                             0x080013a8   Section        0  rt_system.o(i.rt_pop_req)
    i.rt_psh_req                             0x08001424   Section        0  rt_system.o(i.rt_psh_req)
    i.rt_psq_enq                             0x08001444   Section        0  rt_list.o(i.rt_psq_enq)
    i.rt_put_dly                             0x080014a0   Section        0  rt_list.o(i.rt_put_dly)
    i.rt_put_prio                            0x080014e8   Section        0  rt_list.o(i.rt_put_prio)
    i.rt_put_rdy_first                       0x08001520   Section        0  rt_list.o(i.rt_put_rdy_first)
    i.rt_resort_prio                         0x08001534   Section        0  rt_list.o(i.rt_resort_prio)
    i.rt_ret_regs                            0x08001568   Section        0  hal_cm.o(i.rt_ret_regs)
    rt_ret_regs                              0x08001569   Thumb Code    16  hal_cm.o(i.rt_ret_regs)
    i.rt_ret_val                             0x08001578   Section        0  hal_cm.o(i.rt_ret_val)
    i.rt_ret_val2                            0x08001584   Section        0  hal_cm.o(i.rt_ret_val2)
    i.rt_rmv_dly                             0x08001594   Section        0  rt_list.o(i.rt_rmv_dly)
    i.rt_rmv_list                            0x080015bc   Section        0  rt_list.o(i.rt_rmv_list)
    i.rt_sem_psh                             0x080015ec   Section        0  rt_semaphore.o(i.rt_sem_psh)
    i.rt_stk_check                           0x08001620   Section        0  rt_system.o(i.rt_stk_check)
    i.rt_switch_req                          0x08001644   Section        0  rt_task.o(i.rt_switch_req)
    i.rt_sys_init                            0x0800166c   Section        0  rt_task.o(i.rt_sys_init)
    i.rt_sys_start                           0x08001738   Section        0  rt_task.o(i.rt_sys_start)
    i.rt_systick                             0x080017b0   Section        0  rt_system.o(i.rt_systick)
    i.rt_tid2ptcb                            0x080017f0   Section        0  rt_cmsis.o(i.rt_tid2ptcb)
    rt_tid2ptcb                              0x080017f1   Thumb Code    18  rt_cmsis.o(i.rt_tid2ptcb)
    i.rt_timer_insert                        0x08001804   Section        0  rt_cmsis.o(i.rt_timer_insert)
    rt_timer_insert                          0x08001805   Thumb Code    48  rt_cmsis.o(i.rt_timer_insert)
    i.rt_tsk_create                          0x08001838   Section        0  rt_task.o(i.rt_tsk_create)
    i.rt_tsk_delete                          0x080018c0   Section        0  rt_task.o(i.rt_tsk_delete)
    i.rt_tsk_prio                            0x08001a3c   Section        0  rt_task.o(i.rt_tsk_prio)
    i.rt_tsk_self                            0x08001ab8   Section        0  rt_task.o(i.rt_tsk_self)
    i.svcKernelInitialize                    0x08001ac8   Section        0  rt_cmsis.o(i.svcKernelInitialize)
    i.svcKernelStart                         0x08001b38   Section        0  rt_cmsis.o(i.svcKernelStart)
    i.svcMessageCreate                       0x08001b80   Section        0  rt_cmsis.o(i.svcMessageCreate)
    i.svcMessageGet                          0x08001ba4   Section        0  rt_cmsis.o(i.svcMessageGet)
    i.svcThreadCreate                        0x08001be0   Section        0  rt_cmsis.o(i.svcThreadCreate)
    i.svcThreadGetId                         0x08001c4c   Section        0  rt_cmsis.o(i.svcThreadGetId)
    i.svcThreadTerminate                     0x08001c68   Section        0  rt_cmsis.o(i.svcThreadTerminate)
    i.svcTimerCall                           0x08001ca0   Section        0  rt_cmsis.o(i.svcTimerCall)
    i.sysTimerTick                           0x08001cb8   Section        0  rt_cmsis.o(i.sysTimerTick)
    i.system_enter_run                       0x08001d14   Section        0  system_ctboard.o(i.system_enter_run)
    i.thread1                                0x08001d28   Section        0  threads_roundrobin.o(i.thread1)
    i.thread2                                0x08001d44   Section        0  threads_roundrobin.o(i.thread2)
    i.threads_init                           0x08001d60   Section        0  threads_roundrobin.o(i.threads_init)
    i.uart_init                              0x08001db8   Section        0  uart.o(i.uart_init)
    i.wait_blocking                          0x08001e28   Section        0  threads_roundrobin.o(i.wait_blocking)
    wait_blocking                            0x08001e29   Thumb Code    10  threads_roundrobin.o(i.wait_blocking)
    .constdata                               0x08001e34   Section       32  threads_roundrobin.o(.constdata)
    .constdata                               0x08001e54   Section      104  rtx_conf_cm.o(.constdata)
    __tagsym$$used                           0x08001e70   Number         0  rtx_conf_cm.o(.constdata)
    __tagsym$$used                           0x08001e74   Number         0  rtx_conf_cm.o(.constdata)
    __tagsym$$used                           0x08001e78   Number         0  rtx_conf_cm.o(.constdata)
    __tagsym$$used                           0x08001e7c   Number         0  rtx_conf_cm.o(.constdata)
    .data                                    0x20000000   Section       20  rtx_conf_cm.o(.data)
    nr_mutex                                 0x20000010   Data           4  rtx_conf_cm.o(.data)
    .data                                    0x20000014   Section        8  rt_cmsis.o(.data)
    .data                                    0x2000001c   Section        8  rt_task.o(.data)
    .data                                    0x20000024   Section        8  rt_system.o(.data)
    os_lock                                  0x20000024   Data           1  rt_system.o(.data)
    os_psh_flag                              0x20000025   Data           1  rt_system.o(.data)
    pend_flags                               0x20000026   Data           1  rt_system.o(.data)
    .data                                    0x2000002c   Section        4  rt_time.o(.data)
    .data                                    0x20000030   Section        8  rt_robin.o(.data)
    .data                                    0x20000038   Section        1  hal_cm.o(.data)
    .bss                                     0x20000040   Section     3016  rtx_conf_cm.o(.bss)
    std_libspace                             0x200008e8   Data         672  rtx_conf_cm.o(.bss)
    std_libmutex                             0x20000b88   Data         128  rtx_conf_cm.o(.bss)
    .bss                                     0x20000c08   Section       52  rt_task.o(.bss)
    .bss                                     0x20000c3c   Section       48  rt_list.o(.bss)
    STACK                                    0x20000c70   Section     8192  startup_ctboard.o(STACK)
    __initial_sp                             0x20002c70   Data           0  startup_ctboard.o(STACK)

    Global Symbols

    Symbol Name                              Value     Ov Type        Size  Object(Section)

    BuildAttributes$$THM_ISAv4$E$P$D$K$B$S$7EM$VFPi3$EXTD16$VFPS$VFMA$PE$A:L22UL41UL21$X:L11$S22US41US21$IEEE1$IW$USESV6$~STKCKD$USESV7$~SHL$OSPACE$ROPI$EBA8$UX$STANDARDLIB$REQ8$PRES8$EABIv2 0x00000000   Number         0  anon$$obj.o ABSOLUTE
    __ARM_use_no_argv                        0x00000000   Number         0  main.o ABSOLUTE
    Image$$RO$$Limit                          - Undefined Weak Reference
    Image$$RW$$Base                           - Undefined Weak Reference
    Image$$ZI$$Base                           - Undefined Weak Reference
    Image$$ZI$$Limit                          - Undefined Weak Reference
    __cxa_finalize                            - Undefined Weak Reference
    __sigvec_lookup                           - Undefined Weak Reference
    _call_atexit_fns                          - Undefined Weak Reference
    _fp_trap_shutdown                         - Undefined Weak Reference
    _signal_finish                            - Undefined Weak Reference
    _terminate_alloc                          - Undefined Weak Reference
    _terminate_user_alloc                     - Undefined Weak Reference
    _terminateio                              - Undefined Weak Reference
    __Vectors_Size                           0x000001ac   Number         0  startup_ctboard.o ABSOLUTE
    __RL_RTX_VER                             0x00000482   Number         0  rt_system.o ABSOLUTE
    Stack_Size                               0x00002000   Number         0  startup_ctboard.o ABSOLUTE
    __Vectors                                0x08000000   Data           4  startup_ctboard.o(RESET)
    __Vectors_End                            0x080001ac   Data           0  startup_ctboard.o(RESET)
    rt_set_PSP                               0x080001ad   Thumb Code     6  hal_cm4.o(.emb_text)
    rt_get_PSP                               0x080001b3   Thumb Code     6  hal_cm4.o(.emb_text)
    os_set_env                               0x080001b9   Thumb Code    24  hal_cm4.o(.emb_text)
    _alloc_box                               0x080001d5   Thumb Code    28  hal_cm4.o(.emb_text)
    _free_box                                0x080001f5   Thumb Code    28  hal_cm4.o(.emb_text)
    SVC_Handler                              0x08000215   Thumb Code   168  hal_cm4.o(.emb_text)
    PendSV_Handler                           0x080002cd   Thumb Code    96  hal_cm4.o(.emb_text)
    SysTick_Handler                          0x08000331   Thumb Code     8  hal_cm4.o(.emb_text)
    OS_Tick_Handler                          0x08000339   Thumb Code    12  hal_cm4.o(.emb_text)
    __main                                   0x08000345   Thumb Code    74  datainit_ctboard.o(.text)
    Reset_Handler                            0x080003c1   Thumb Code     8  startup_ctboard.o(.text)
    NMI_Handler                              0x080003c9   Thumb Code     2  startup_ctboard.o(.text)
    HardFault_Handler                        0x080003cb   Thumb Code     2  startup_ctboard.o(.text)
    MemManage_Handler                        0x080003cd   Thumb Code     2  startup_ctboard.o(.text)
    BusFault_Handler                         0x080003cf   Thumb Code     2  startup_ctboard.o(.text)
    UsageFault_Handler                       0x080003d1   Thumb Code     2  startup_ctboard.o(.text)
    DebugMon_Handler                         0x080003d5   Thumb Code     2  startup_ctboard.o(.text)
    ADC_IRQHandler                           0x080003db   Thumb Code     0  startup_ctboard.o(.text)
    CAN1_RX0_IRQHandler                      0x080003db   Thumb Code     0  startup_ctboard.o(.text)
    CAN1_RX1_IRQHandler                      0x080003db   Thumb Code     0  startup_ctboard.o(.text)
    CAN1_SCE_IRQHandler                      0x080003db   Thumb Code     0  startup_ctboard.o(.text)
    CAN1_TX_IRQHandler                       0x080003db   Thumb Code     0  startup_ctboard.o(.text)
    CAN2_RX0_IRQHandler                      0x080003db   Thumb Code     0  startup_ctboard.o(.text)
    CAN2_RX1_IRQHandler                      0x080003db   Thumb Code     0  startup_ctboard.o(.text)
    CAN2_SCE_IRQHandler                      0x080003db   Thumb Code     0  startup_ctboard.o(.text)
    CAN2_TX_IRQHandler                       0x080003db   Thumb Code     0  startup_ctboard.o(.text)
    CRYP_IRQHandler                          0x080003db   Thumb Code     0  startup_ctboard.o(.text)
    DCMI_IRQHandler                          0x080003db   Thumb Code     0  startup_ctboard.o(.text)
    DMA1_Stream0_IRQHandler                  0x080003db   Thumb Code     0  startup_ctboard.o(.text)
    DMA1_Stream1_IRQHandler                  0x080003db   Thumb Code     0  startup_ctboard.o(.text)
    DMA1_Stream2_IRQHandler                  0x080003db   Thumb Code     0  startup_ctboard.o(.text)
    DMA1_Stream3_IRQHandler                  0x080003db   Thumb Code     0  startup_ctboard.o(.text)
    DMA1_Stream4_IRQHandler                  0x080003db   Thumb Code     0  startup_ctboard.o(.text)
    DMA1_Stream5_IRQHandler                  0x080003db   Thumb Code     0  startup_ctboard.o(.text)
    DMA1_Stream6_IRQHandler                  0x080003db   Thumb Code     0  startup_ctboard.o(.text)
    DMA1_Stream7_IRQHandler                  0x080003db   Thumb Code     0  startup_ctboard.o(.text)
    DMA2D_IRQHandler                         0x080003db   Thumb Code     0  startup_ctboard.o(.text)
    DMA2_Stream0_IRQHandler                  0x080003db   Thumb Code     0  startup_ctboard.o(.text)
    DMA2_Stream1_IRQHandler                  0x080003db   Thumb Code     0  startup_ctboard.o(.text)
    DMA2_Stream2_IRQHandler                  0x080003db   Thumb Code     0  startup_ctboard.o(.text)
    DMA2_Stream3_IRQHandler                  0x080003db   Thumb Code     0  startup_ctboard.o(.text)
    DMA2_Stream4_IRQHandler                  0x080003db   Thumb Code     0  startup_ctboard.o(.text)
    DMA2_Stream5_IRQHandler                  0x080003db   Thumb Code     0  startup_ctboard.o(.text)
    DMA2_Stream6_IRQHandler                  0x080003db   Thumb Code     0  startup_ctboard.o(.text)
    DMA2_Stream7_IRQHandler                  0x080003db   Thumb Code     0  startup_ctboard.o(.text)
    ETH_IRQHandler                           0x080003db   Thumb Code     0  startup_ctboard.o(.text)
    ETH_WKUP_IRQHandler                      0x080003db   Thumb Code     0  startup_ctboard.o(.text)
    EXTI0_IRQHandler                         0x080003db   Thumb Code     0  startup_ctboard.o(.text)
    EXTI15_10_IRQHandler                     0x080003db   Thumb Code     0  startup_ctboard.o(.text)
    EXTI1_IRQHandler                         0x080003db   Thumb Code     0  startup_ctboard.o(.text)
    EXTI2_IRQHandler                         0x080003db   Thumb Code     0  startup_ctboard.o(.text)
    EXTI3_IRQHandler                         0x080003db   Thumb Code     0  startup_ctboard.o(.text)
    EXTI4_IRQHandler                         0x080003db   Thumb Code     0  startup_ctboard.o(.text)
    EXTI9_5_IRQHandler                       0x080003db   Thumb Code     0  startup_ctboard.o(.text)
    FLASH_IRQHandler                         0x080003db   Thumb Code     0  startup_ctboard.o(.text)
    FMC_IRQHandler                           0x080003db   Thumb Code     0  startup_ctboard.o(.text)
    FPU_IRQHandler                           0x080003db   Thumb Code     0  startup_ctboard.o(.text)
    HASH_RNG_IRQHandler                      0x080003db   Thumb Code     0  startup_ctboard.o(.text)
    I2C1_ER_IRQHandler                       0x080003db   Thumb Code     0  startup_ctboard.o(.text)
    I2C1_EV_IRQHandler                       0x080003db   Thumb Code     0  startup_ctboard.o(.text)
    I2C2_ER_IRQHandler                       0x080003db   Thumb Code     0  startup_ctboard.o(.text)
    I2C2_EV_IRQHandler                       0x080003db   Thumb Code     0  startup_ctboard.o(.text)
    I2C3_ER_IRQHandler                       0x080003db   Thumb Code     0  startup_ctboard.o(.text)
    I2C3_EV_IRQHandler                       0x080003db   Thumb Code     0  startup_ctboard.o(.text)
    LTDC_ER_IRQHandler                       0x080003db   Thumb Code     0  startup_ctboard.o(.text)
    LTDC_IRQHandler                          0x080003db   Thumb Code     0  startup_ctboard.o(.text)
    OTG_FS_IRQHandler                        0x080003db   Thumb Code     0  startup_ctboard.o(.text)
    OTG_FS_WKUP_IRQHandler                   0x080003db   Thumb Code     0  startup_ctboard.o(.text)
    OTG_HS_EP1_IN_IRQHandler                 0x080003db   Thumb Code     0  startup_ctboard.o(.text)
    OTG_HS_EP1_OUT_IRQHandler                0x080003db   Thumb Code     0  startup_ctboard.o(.text)
    OTG_HS_IRQHandler                        0x080003db   Thumb Code     0  startup_ctboard.o(.text)
    OTG_HS_WKUP_IRQHandler                   0x080003db   Thumb Code     0  startup_ctboard.o(.text)
    PVD_IRQHandler                           0x080003db   Thumb Code     0  startup_ctboard.o(.text)
    RCC_IRQHandler                           0x080003db   Thumb Code     0  startup_ctboard.o(.text)
    RTC_Alarm_IRQHandler                     0x080003db   Thumb Code     0  startup_ctboard.o(.text)
    RTC_WKUP_IRQHandler                      0x080003db   Thumb Code     0  startup_ctboard.o(.text)
    SAI1_IRQHandler                          0x080003db   Thumb Code     0  startup_ctboard.o(.text)
    SDIO_IRQHandler                          0x080003db   Thumb Code     0  startup_ctboard.o(.text)
    SPI1_IRQHandler                          0x080003db   Thumb Code     0  startup_ctboard.o(.text)
    SPI2_IRQHandler                          0x080003db   Thumb Code     0  startup_ctboard.o(.text)
    SPI3_IRQHandler                          0x080003db   Thumb Code     0  startup_ctboard.o(.text)
    SPI4_IRQHandler                          0x080003db   Thumb Code     0  startup_ctboard.o(.text)
    SPI5_IRQHandler                          0x080003db   Thumb Code     0  startup_ctboard.o(.text)
    SPI6_IRQHandler                          0x080003db   Thumb Code     0  startup_ctboard.o(.text)
    TAMP_STAMP_IRQHandler                    0x080003db   Thumb Code     0  startup_ctboard.o(.text)
    TIM1_BRK_TIM9_IRQHandler                 0x080003db   Thumb Code     0  startup_ctboard.o(.text)
    TIM1_CC_IRQHandler                       0x080003db   Thumb Code     0  startup_ctboard.o(.text)
    TIM1_TRG_COM_TIM11_IRQHandler            0x080003db   Thumb Code     0  startup_ctboard.o(.text)
    TIM1_UP_TIM10_IRQHandler                 0x080003db   Thumb Code     0  startup_ctboard.o(.text)
    TIM2_IRQHandler                          0x080003db   Thumb Code     0  startup_ctboard.o(.text)
    TIM3_IRQHandler                          0x080003db   Thumb Code     0  startup_ctboard.o(.text)
    TIM4_IRQHandler                          0x080003db   Thumb Code     0  startup_ctboard.o(.text)
    TIM5_IRQHandler                          0x080003db   Thumb Code     0  startup_ctboard.o(.text)
    TIM6_DAC_IRQHandler                      0x080003db   Thumb Code     0  startup_ctboard.o(.text)
    TIM7_IRQHandler                          0x080003db   Thumb Code     0  startup_ctboard.o(.text)
    TIM8_BRK_TIM12_IRQHandler                0x080003db   Thumb Code     0  startup_ctboard.o(.text)
    TIM8_CC_IRQHandler                       0x080003db   Thumb Code     0  startup_ctboard.o(.text)
    TIM8_TRG_COM_TIM14_IRQHandler            0x080003db   Thumb Code     0  startup_ctboard.o(.text)
    TIM8_UP_TIM13_IRQHandler                 0x080003db   Thumb Code     0  startup_ctboard.o(.text)
    UART4_IRQHandler                         0x080003db   Thumb Code     0  startup_ctboard.o(.text)
    UART5_IRQHandler                         0x080003db   Thumb Code     0  startup_ctboard.o(.text)
    UART7_IRQHandler                         0x080003db   Thumb Code     0  startup_ctboard.o(.text)
    UART8_IRQHandler                         0x080003db   Thumb Code     0  startup_ctboard.o(.text)
    USART1_IRQHandler                        0x080003db   Thumb Code     0  startup_ctboard.o(.text)
    USART2_IRQHandler                        0x080003db   Thumb Code     0  startup_ctboard.o(.text)
    USART3_IRQHandler                        0x080003db   Thumb Code     0  startup_ctboard.o(.text)
    USART6_IRQHandler                        0x080003db   Thumb Code     0  startup_ctboard.o(.text)
    WWDG_IRQHandler                          0x080003db   Thumb Code     0  startup_ctboard.o(.text)
    SVC_Count                                0x080003e4   Data           4  svc_table.o(SVC_TABLE)
    SVC_Table                                0x080003e8   Data           0  svc_table.o(SVC_TABLE)
    __system                                 0x080003e9   Thumb Code     8  system_ctboard.o(i.__system)
    _init_box                                0x080003f1   Thumb Code    70  rt_membox.o(i._init_box)
    _mutex_acquire                           0x08000439   Thumb Code    22  rtx_conf_cm.o(i._mutex_acquire)
    _mutex_release                           0x08000459   Thumb Code    18  rtx_conf_cm.o(i._mutex_release)
    dbg_init                                 0x080004c5   Thumb Code    34  hal_cm.o(i.dbg_init)
    dbg_task_notify                          0x080004f5   Thumb Code    32  hal_cm.o(i.dbg_task_notify)
    dbg_task_switch                          0x08000515   Thumb Code    16  hal_cm.o(i.dbg_task_switch)
    hal_gpio_bit_reset                       0x08000525   Thumb Code    22  hal_gpio.o(i.hal_gpio_bit_reset)
    hal_gpio_bit_set                         0x0800053b   Thumb Code    22  hal_gpio.o(i.hal_gpio_bit_set)
    hal_gpio_init_alternate                  0x08000551   Thumb Code   132  hal_gpio.o(i.hal_gpio_init_alternate)
    hal_gpio_init_output                     0x080005d5   Thumb Code   160  hal_gpio.o(i.hal_gpio_init_output)
    hal_pwr_set_overdrive                    0x08000675   Thumb Code     6  hal_pwr.o(i.hal_pwr_set_overdrive)
    hal_rcc_reset                            0x0800067d   Thumb Code   192  hal_rcc.o(i.hal_rcc_reset)
    hal_rcc_set_osc                          0x08000759   Thumb Code   136  hal_rcc.o(i.hal_rcc_set_osc)
    hal_rcc_setup_clock                      0x080007e5   Thumb Code   134  hal_rcc.o(i.hal_rcc_setup_clock)
    hal_rcc_setup_pll                        0x08000871   Thumb Code   314  hal_rcc.o(i.hal_rcc_setup_pll)
    isrMessageGet                            0x08000aad   Thumb Code    42  rt_cmsis.o(i.isrMessageGet)
    isrMessagePut                            0x08000ad7   Thumb Code    44  rt_cmsis.o(i.isrMessagePut)
    isr_mbx_receive                          0x08000b05   Thumb Code    86  rt_mailbox.o(i.isr_mbx_receive)
    isr_mbx_send                             0x08000b5b   Thumb Code    14  rt_mailbox.o(i.isr_mbx_send)
    main                                     0x08000b69   Thumb Code    16  main.o(i.main)
    osKernelInitialize                       0x08000b79   Thumb Code    30  rt_cmsis.o(i.osKernelInitialize)
    osKernelStart                            0x08000b9d   Thumb Code    98  rt_cmsis.o(i.osKernelStart)
    osMessageGet                             0x08000c09   Thumb Code    18  rt_cmsis.o(i.osMessageGet)
    osThreadCreate                           0x08000c21   Thumb Code    36  rt_cmsis.o(i.osThreadCreate)
    osThreadExit                             0x08000c4d   Thumb Code    14  rt_cmsis.o(i.osThreadExit)
    osTimerCall                              0x08000c65   Thumb Code     8  rt_cmsis.o(i.osTimerCall)
    osTimerThread                            0x08000c71   Thumb Code    38  rt_cmsis.o(i.osTimerThread)
    os_error                                 0x08000c9d   Thumb Code    34  rtx_conf_cm.o(i.os_error)
    os_idle_demon                            0x08000cbf   Thumb Code     4  rtx_conf_cm.o(i.os_idle_demon)
    os_tick_init                             0x08000cc5   Thumb Code    32  rt_system.o(i.os_tick_init)
    os_tick_irqack                           0x08000ced   Thumb Code     2  rt_system.o(i.os_tick_irqack)
    rt_alloc_box                             0x08000cef   Thumb Code    26  rt_membox.o(i.rt_alloc_box)
    rt_alloc_mem                             0x08000d09   Thumb Code    62  rt_memory.o(i.rt_alloc_mem)
    rt_block                                 0x08000d49   Thumb Code    48  rt_task.o(i.rt_block)
    rt_chk_robin                             0x08000d81   Thumb Code    60  rt_robin.o(i.rt_chk_robin)
    rt_dec_dly                               0x08000dc9   Thumb Code   102  rt_list.o(i.rt_dec_dly)
    rt_dispatch                              0x08000e39   Thumb Code    60  rt_task.o(i.rt_dispatch)
    rt_evt_psh                               0x08000e7d   Thumb Code    76  rt_event.o(i.rt_evt_psh)
    rt_free_box                              0x08000ecd   Thumb Code    44  rt_membox.o(i.rt_free_box)
    rt_free_mem                              0x08000ef9   Thumb Code    40  rt_memory.o(i.rt_free_mem)
    rt_get_first                             0x08000f21   Thumb Code    40  rt_list.o(i.rt_get_first)
    rt_init_mem                              0x08000f99   Thumb Code    26  rt_memory.o(i.rt_init_mem)
    rt_init_robin                            0x08000fb5   Thumb Code    14  rt_robin.o(i.rt_init_robin)
    rt_init_stack                            0x08000fcd   Thumb Code   118  hal_cm.o(i.rt_init_stack)
    rt_mbx_check                             0x0800104d   Thumb Code     8  rt_mailbox.o(i.rt_mbx_check)
    rt_mbx_init                              0x08001055   Thumb Code    26  rt_mailbox.o(i.rt_mbx_init)
    rt_mbx_psh                               0x08001071   Thumb Code   236  rt_mailbox.o(i.rt_mbx_psh)
    rt_mbx_wait                              0x08001161   Thumb Code   174  rt_mailbox.o(i.rt_mbx_wait)
    rt_mut_release                           0x08001259   Thumb Code   208  rt_mutex.o(i.rt_mut_release)
    rt_mut_wait                              0x08001331   Thumb Code   114  rt_mutex.o(i.rt_mut_wait)
    rt_pop_req                               0x080013a9   Thumb Code   112  rt_system.o(i.rt_pop_req)
    rt_psh_req                               0x08001425   Thumb Code    22  rt_system.o(i.rt_psh_req)
    rt_psq_enq                               0x08001445   Thumb Code    88  rt_list.o(i.rt_psq_enq)
    rt_put_dly                               0x080014a1   Thumb Code    68  rt_list.o(i.rt_put_dly)
    rt_put_prio                              0x080014e9   Thumb Code    54  rt_list.o(i.rt_put_prio)
    rt_put_rdy_first                         0x08001521   Thumb Code    14  rt_list.o(i.rt_put_rdy_first)
    rt_resort_prio                           0x08001535   Thumb Code    46  rt_list.o(i.rt_resort_prio)
    rt_ret_val                               0x08001579   Thumb Code    12  hal_cm.o(i.rt_ret_val)
    rt_ret_val2                              0x08001585   Thumb Code    16  hal_cm.o(i.rt_ret_val2)
    rt_rmv_dly                               0x08001595   Thumb Code    40  rt_list.o(i.rt_rmv_dly)
    rt_rmv_list                              0x080015bd   Thumb Code    44  rt_list.o(i.rt_rmv_list)
    rt_sem_psh                               0x080015ed   Thumb Code    48  rt_semaphore.o(i.rt_sem_psh)
    rt_stk_check                             0x08001621   Thumb Code    28  rt_system.o(i.rt_stk_check)
    rt_switch_req                            0x08001645   Thumb Code    30  rt_task.o(i.rt_switch_req)
    rt_sys_init                              0x0800166d   Thumb Code   138  rt_task.o(i.rt_sys_init)
    rt_sys_start                             0x08001739   Thumb Code   110  rt_task.o(i.rt_sys_start)
    rt_systick                               0x080017b1   Thumb Code    50  rt_system.o(i.rt_systick)
    rt_tsk_create                            0x08001839   Thumb Code   118  rt_task.o(i.rt_tsk_create)
    rt_tsk_delete                            0x080018c1   Thumb Code   352  rt_task.o(i.rt_tsk_delete)
    rt_tsk_prio                              0x08001a3d   Thumb Code   108  rt_task.o(i.rt_tsk_prio)
    rt_tsk_self                              0x08001ab9   Thumb Code    12  rt_task.o(i.rt_tsk_self)
    svcKernelInitialize                      0x08001ac9   Thumb Code    80  rt_cmsis.o(i.svcKernelInitialize)
    svcKernelStart                           0x08001b39   Thumb Code    62  rt_cmsis.o(i.svcKernelStart)
    svcMessageCreate                         0x08001b81   Thumb Code    36  rt_cmsis.o(i.svcMessageCreate)
    svcMessageGet                            0x08001ba5   Thumb Code    58  rt_cmsis.o(i.svcMessageGet)
    svcThreadCreate                          0x08001be1   Thumb Code    96  rt_cmsis.o(i.svcThreadCreate)
    svcThreadGetId                           0x08001c4d   Thumb Code    22  rt_cmsis.o(i.svcThreadGetId)
    svcThreadTerminate                       0x08001c69   Thumb Code    50  rt_cmsis.o(i.svcThreadTerminate)
    svcTimerCall                             0x08001ca1   Thumb Code    24  rt_cmsis.o(i.svcTimerCall)
    sysTimerTick                             0x08001cb9   Thumb Code    84  rt_cmsis.o(i.sysTimerTick)
    system_enter_run                         0x08001d15   Thumb Code    20  system_ctboard.o(i.system_enter_run)
    thread1                                  0x08001d29   Thumb Code    20  threads_roundrobin.o(i.thread1)
    thread2                                  0x08001d45   Thumb Code    20  threads_roundrobin.o(i.thread2)
    threads_init                             0x08001d61   Thumb Code    72  threads_roundrobin.o(i.threads_init)
    uart_init                                0x08001db9   Thumb Code   100  uart.o(i.uart_init)
    os_thread_def_thread1                    0x08001e34   Data          16  threads_roundrobin.o(.constdata)
    os_thread_def_thread2                    0x08001e44   Data          16  threads_roundrobin.o(.constdata)
    os_maxtaskrun                            0x08001e54   Data           2  rtx_conf_cm.o(.constdata)
    os_stackinfo                             0x08001e58   Data           4  rtx_conf_cm.o(.constdata)
    os_rrobin                                0x08001e5c   Data           4  rtx_conf_cm.o(.constdata)
    os_tickfreq                              0x08001e60   Data           4  rtx_conf_cm.o(.constdata)
    os_tickus_i                              0x08001e64   Data           2  rtx_conf_cm.o(.constdata)
    os_tickus_f                              0x08001e66   Data           2  rtx_conf_cm.o(.constdata)
    os_trv                                   0x08001e68   Data           4  rtx_conf_cm.o(.constdata)
    os_flags                                 0x08001e6c   Data           1  rtx_conf_cm.o(.constdata)
    CMSIS_RTOS_API_Version                   0x08001e70   Data           4  rtx_conf_cm.o(.constdata)
    CMSIS_RTOS_RTX_Version                   0x08001e74   Data           4  rtx_conf_cm.o(.constdata)
    os_clockrate                             0x08001e78   Data           4  rtx_conf_cm.o(.constdata)
    os_timernum                              0x08001e7c   Data           4  rtx_conf_cm.o(.constdata)
    mp_tcb_size                              0x08001e80   Data           2  rtx_conf_cm.o(.constdata)
    mp_stk_size                              0x08001e84   Data           4  rtx_conf_cm.o(.constdata)
    os_stack_sz                              0x08001e88   Data           4  rtx_conf_cm.o(.constdata)
    os_fifo_size                             0x08001e8c   Data           1  rtx_conf_cm.o(.constdata)
    os_thread_def_osTimerThread              0x08001e90   Data          16  rtx_conf_cm.o(.constdata)
    os_messageQ_def_osTimerMessageQ          0x08001ea0   Data           8  rtx_conf_cm.o(.constdata)
    mp_tmr_size                              0x08001ea8   Data           2  rtx_conf_cm.o(.constdata)
    os_thread_def_main                       0x08001eac   Data          16  rtx_conf_cm.o(.constdata)
    Image$$ER_IROM1$$Limit                   0x08001ebc   Number         0  anon$$obj.o ABSOLUTE
    Image$$RW_IRAM1$$Base                    0x20000000   Number         0  anon$$obj.o ABSOLUTE
    osThreadId_osTimerThread                 0x20000000   Data           4  rtx_conf_cm.o(.data)
    osMessageQId_osTimerMessageQ             0x20000004   Data           4  rtx_conf_cm.o(.data)
    os_tmr                                   0x20000008   Data           4  rtx_conf_cm.o(.data)
    m_tmr                                    0x2000000c   Data           4  rtx_conf_cm.o(.data)
    os_initialized                           0x20000014   Data           1  rt_cmsis.o(.data)
    os_running                               0x20000015   Data           1  rt_cmsis.o(.data)
    os_timer_head                            0x20000018   Data           4  rt_cmsis.o(.data)
    os_tsk                                   0x2000001c   Data           8  rt_task.o(.data)
    os_tick_irqn                             0x20000028   Data           4  rt_system.o(.data)
    os_time                                  0x2000002c   Data           4  rt_time.o(.data)
    os_robin                                 0x20000030   Data           8  rt_robin.o(.data)
    dbg_msg                                  0x20000038   Data           1  hal_cm.o(.data)
    Image$$RW_IRAM1$$ZI$$Base                0x2000003c   Number         0  anon$$obj.o ABSOLUTE
    mp_tcb                                   0x20000040   Data         376  rtx_conf_cm.o(.bss)
    mp_stk                                   0x200001b8   Data        1216  rtx_conf_cm.o(.bss)
    os_stack_mem                             0x20000678   Data         432  rtx_conf_cm.o(.bss)
    os_fifo                                  0x20000828   Data         132  rtx_conf_cm.o(.bss)
    os_active_TCB                            0x200008ac   Data          28  rtx_conf_cm.o(.bss)
    os_messageQ_q_osTimerMessageQ            0x200008c8   Data          32  rtx_conf_cm.o(.bss)
    os_idle_TCB                              0x20000c08   Data          52  rt_task.o(.bss)
    os_rdy                                   0x20000c3c   Data          24  rt_list.o(.bss)
    os_dly                                   0x20000c54   Data          24  rt_list.o(.bss)
    Stack_Mem                                0x20000c70   Data        8192  startup_ctboard.o(STACK)
    Image$$RW_IRAM1$$ZI$$Limit               0x20002c70   Number         0  anon$$obj.o ABSOLUTE



==============================================================================

Memory Map of the image

  Image Entry point : 0x080003c1

  Load Region LR_IROM1 (Base: 0x08000000, Size: 0x00001ef8, Max: 0x00200000, ABSOLUTE)

    Execution Region ER_IROM1 (Exec base: 0x08000000, Load base: 0x08000000, Size: 0x00001ebc, Max: 0x00200000, ABSOLUTE)

    Exec Addr    Load Addr    Size         Type   Attr      Idx    E Section Name        Object

    0x08000000   0x08000000   0x000001ac   Data   RO          229    RESET               startup_ctboard.o
    0x080001ac   0x080001ac   0x00000198   Code   RO         1715    .emb_text           RTX_CM4.lib(hal_cm4.o)
    0x08000344   0x08000344   0x0000007c   Code   RO          223    .text               datainit_ctboard.o
    0x080003c0   0x080003c0   0x00000024   Code   RO          230  * .text               startup_ctboard.o
    0x080003e4   0x080003e4   0x00000004   Code   RO         1725    SVC_TABLE           RTX_CM4.lib(svc_table.o)
    0x080003e8   0x080003e8   0x00000008   Code   RO          234    i.__system          system_ctboard.o
    0x080003f0   0x080003f0   0x00000046   Code   RO         1609    i._init_box         RTX_CM4.lib(rt_membox.o)
    0x08000436   0x08000436   0x00000002   PAD
    0x08000438   0x08000438   0x00000020   Code   RO           96    i._mutex_acquire    rtx_conf_cm.o
    0x08000458   0x08000458   0x0000001c   Code   RO           98    i._mutex_release    rtx_conf_cm.o
    0x08000474   0x08000474   0x0000004e   Code   RO          326    i.create_pattern_mask  hal_gpio.o
    0x080004c2   0x080004c2   0x00000002   PAD
    0x080004c4   0x080004c4   0x00000030   Code   RO         1662    i.dbg_init          RTX_CM4.lib(hal_cm.o)
    0x080004f4   0x080004f4   0x00000020   Code   RO         1663    i.dbg_task_notify   RTX_CM4.lib(hal_cm.o)
    0x08000514   0x08000514   0x00000010   Code   RO         1664    i.dbg_task_switch   RTX_CM4.lib(hal_cm.o)
    0x08000524   0x08000524   0x00000016   Code   RO          328    i.hal_gpio_bit_reset  hal_gpio.o
    0x0800053a   0x0800053a   0x00000016   Code   RO          329    i.hal_gpio_bit_set  hal_gpio.o
    0x08000550   0x08000550   0x00000084   Code   RO          331    i.hal_gpio_init_alternate  hal_gpio.o
    0x080005d4   0x080005d4   0x000000a0   Code   RO          334    i.hal_gpio_init_output  hal_gpio.o
    0x08000674   0x08000674   0x00000006   Code   RO          435    i.hal_pwr_set_overdrive  hal_pwr.o
    0x0800067a   0x0800067a   0x00000002   PAD
    0x0800067c   0x0800067c   0x000000dc   Code   RO          479    i.hal_rcc_reset     hal_rcc.o
    0x08000758   0x08000758   0x0000008c   Code   RO          480    i.hal_rcc_set_osc   hal_rcc.o
    0x080007e4   0x080007e4   0x0000008c   Code   RO          482    i.hal_rcc_setup_clock  hal_rcc.o
    0x08000870   0x08000870   0x00000148   Code   RO          483    i.hal_rcc_setup_pll  hal_rcc.o
    0x080009b8   0x080009b8   0x00000002   Code   RO          235    i.init_FMC_SRAM     system_ctboard.o
    0x080009ba   0x080009ba   0x00000002   PAD
    0x080009bc   0x080009bc   0x00000014   Code   RO          236    i.init_FPU          system_ctboard.o
    0x080009d0   0x080009d0   0x00000002   Code   RO          237    i.init_LCD          system_ctboard.o
    0x080009d2   0x080009d2   0x00000002   PAD
    0x080009d4   0x080009d4   0x000000b8   Code   RO          238    i.init_SystemClock  system_ctboard.o
    0x08000a8c   0x08000a8c   0x00000020   Code   RO          342    i.intercept_overwrite_register  hal_gpio.o
    0x08000aac   0x08000aac   0x0000002a   Code   RO          518    i.isrMessageGet     RTX_CM4.lib(rt_cmsis.o)
    0x08000ad6   0x08000ad6   0x0000002c   Code   RO          519    i.isrMessagePut     RTX_CM4.lib(rt_cmsis.o)
    0x08000b02   0x08000b02   0x00000002   PAD
    0x08000b04   0x08000b04   0x00000056   Code   RO         1464    i.isr_mbx_receive   RTX_CM4.lib(rt_mailbox.o)
    0x08000b5a   0x08000b5a   0x0000000e   Code   RO         1465    i.isr_mbx_send      RTX_CM4.lib(rt_mailbox.o)
    0x08000b68   0x08000b68   0x00000010   Code   RO            1    i.main              main.o
    0x08000b78   0x08000b78   0x00000024   Code   RO          523    i.osKernelInitialize  RTX_CM4.lib(rt_cmsis.o)
    0x08000b9c   0x08000b9c   0x0000006c   Code   RO          525    i.osKernelStart     RTX_CM4.lib(rt_cmsis.o)
    0x08000c08   0x08000c08   0x00000018   Code   RO          534    i.osMessageGet      RTX_CM4.lib(rt_cmsis.o)
    0x08000c20   0x08000c20   0x0000002c   Code   RO          551    i.osThreadCreate    RTX_CM4.lib(rt_cmsis.o)
    0x08000c4c   0x08000c4c   0x00000018   Code   RO          552    i.osThreadExit      RTX_CM4.lib(rt_cmsis.o)
    0x08000c64   0x08000c64   0x0000000c   Code   RO          558    i.osTimerCall       RTX_CM4.lib(rt_cmsis.o)
    0x08000c70   0x08000c70   0x0000002c   Code   RO          563    i.osTimerThread     RTX_CM4.lib(rt_cmsis.o)
    0x08000c9c   0x08000c9c   0x00000022   Code   RO           99    i.os_error          rtx_conf_cm.o
    0x08000cbe   0x08000cbe   0x00000004   Code   RO          100    i.os_idle_demon     rtx_conf_cm.o
    0x08000cc2   0x08000cc2   0x00000002   PAD
    0x08000cc4   0x08000cc4   0x00000028   Code   RO         1256    i.os_tick_init      RTX_CM4.lib(rt_system.o)
    0x08000cec   0x08000cec   0x00000002   Code   RO         1257    i.os_tick_irqack    RTX_CM4.lib(rt_system.o)
    0x08000cee   0x08000cee   0x0000001a   Code   RO         1610    i.rt_alloc_box      RTX_CM4.lib(rt_membox.o)
    0x08000d08   0x08000d08   0x0000003e   Code   RO         1638    i.rt_alloc_mem      RTX_CM4.lib(rt_memory.o)
    0x08000d46   0x08000d46   0x00000002   PAD
    0x08000d48   0x08000d48   0x00000038   Code   RO         1137    i.rt_block          RTX_CM4.lib(rt_task.o)
    0x08000d80   0x08000d80   0x00000048   Code   RO         1587    i.rt_chk_robin      RTX_CM4.lib(rt_robin.o)
    0x08000dc8   0x08000dc8   0x00000070   Code   RO         1388    i.rt_dec_dly        RTX_CM4.lib(rt_list.o)
    0x08000e38   0x08000e38   0x00000044   Code   RO         1138    i.rt_dispatch       RTX_CM4.lib(rt_task.o)
    0x08000e7c   0x08000e7c   0x00000050   Code   RO         1349    i.rt_evt_psh        RTX_CM4.lib(rt_event.o)
    0x08000ecc   0x08000ecc   0x0000002c   Code   RO         1611    i.rt_free_box       RTX_CM4.lib(rt_membox.o)
    0x08000ef8   0x08000ef8   0x00000028   Code   RO         1639    i.rt_free_mem       RTX_CM4.lib(rt_memory.o)
    0x08000f20   0x08000f20   0x00000028   Code   RO         1389    i.rt_get_first      RTX_CM4.lib(rt_list.o)
    0x08000f48   0x08000f48   0x00000008   Code   RO          568    i.rt_id2obj         RTX_CM4.lib(rt_cmsis.o)
    0x08000f50   0x08000f50   0x00000048   Code   RO         1139    i.rt_init_context   RTX_CM4.lib(rt_task.o)
    0x08000f98   0x08000f98   0x0000001a   Code   RO         1640    i.rt_init_mem       RTX_CM4.lib(rt_memory.o)
    0x08000fb2   0x08000fb2   0x00000002   PAD
    0x08000fb4   0x08000fb4   0x00000018   Code   RO         1588    i.rt_init_robin     RTX_CM4.lib(rt_robin.o)
    0x08000fcc   0x08000fcc   0x00000080   Code   RO         1665    i.rt_init_stack     RTX_CM4.lib(hal_cm.o)
    0x0800104c   0x0800104c   0x00000008   Code   RO         1466    i.rt_mbx_check      RTX_CM4.lib(rt_mailbox.o)
    0x08001054   0x08001054   0x0000001a   Code   RO         1467    i.rt_mbx_init       RTX_CM4.lib(rt_mailbox.o)
    0x0800106e   0x0800106e   0x00000002   PAD
    0x08001070   0x08001070   0x000000f0   Code   RO         1468    i.rt_mbx_psh        RTX_CM4.lib(rt_mailbox.o)
    0x08001160   0x08001160   0x000000b4   Code   RO         1470    i.rt_mbx_wait       RTX_CM4.lib(rt_mailbox.o)
    0x08001214   0x08001214   0x00000044   Code   RO          569    i.rt_ms2tick        RTX_CM4.lib(rt_cmsis.o)
    0x08001258   0x08001258   0x000000d8   Code   RO         1223    i.rt_mut_release    RTX_CM4.lib(rt_mutex.o)
    0x08001330   0x08001330   0x00000078   Code   RO         1224    i.rt_mut_wait       RTX_CM4.lib(rt_mutex.o)
    0x080013a8   0x080013a8   0x0000007c   Code   RO         1260    i.rt_pop_req        RTX_CM4.lib(rt_system.o)
    0x08001424   0x08001424   0x00000020   Code   RO         1261    i.rt_psh_req        RTX_CM4.lib(rt_system.o)
    0x08001444   0x08001444   0x0000005c   Code   RO         1391    i.rt_psq_enq        RTX_CM4.lib(rt_list.o)
    0x080014a0   0x080014a0   0x00000048   Code   RO         1392    i.rt_put_dly        RTX_CM4.lib(rt_list.o)
    0x080014e8   0x080014e8   0x00000036   Code   RO         1393    i.rt_put_prio       RTX_CM4.lib(rt_list.o)
    0x0800151e   0x0800151e   0x00000002   PAD
    0x08001520   0x08001520   0x00000014   Code   RO         1394    i.rt_put_rdy_first  RTX_CM4.lib(rt_list.o)
    0x08001534   0x08001534   0x00000034   Code   RO         1395    i.rt_resort_prio    RTX_CM4.lib(rt_list.o)
    0x08001568   0x08001568   0x00000010   Code   RO         1666    i.rt_ret_regs       RTX_CM4.lib(hal_cm.o)
    0x08001578   0x08001578   0x0000000c   Code   RO         1667    i.rt_ret_val        RTX_CM4.lib(hal_cm.o)
    0x08001584   0x08001584   0x00000010   Code   RO         1668    i.rt_ret_val2       RTX_CM4.lib(hal_cm.o)
    0x08001594   0x08001594   0x00000028   Code   RO         1396    i.rt_rmv_dly        RTX_CM4.lib(rt_list.o)
    0x080015bc   0x080015bc   0x00000030   Code   RO         1397    i.rt_rmv_list       RTX_CM4.lib(rt_list.o)
    0x080015ec   0x080015ec   0x00000034   Code   RO         1515    i.rt_sem_psh        RTX_CM4.lib(rt_semaphore.o)
    0x08001620   0x08001620   0x00000024   Code   RO         1263    i.rt_stk_check      RTX_CM4.lib(rt_system.o)
    0x08001644   0x08001644   0x00000028   Code   RO         1140    i.rt_switch_req     RTX_CM4.lib(rt_task.o)
    0x0800166c   0x0800166c   0x000000cc   Code   RO         1141    i.rt_sys_init       RTX_CM4.lib(rt_task.o)
    0x08001738   0x08001738   0x00000078   Code   RO         1142    i.rt_sys_start      RTX_CM4.lib(rt_task.o)
    0x080017b0   0x080017b0   0x00000040   Code   RO         1265    i.rt_systick        RTX_CM4.lib(rt_system.o)
    0x080017f0   0x080017f0   0x00000012   Code   RO          570    i.rt_tid2ptcb       RTX_CM4.lib(rt_cmsis.o)
    0x08001802   0x08001802   0x00000002   PAD
    0x08001804   0x08001804   0x00000034   Code   RO          571    i.rt_timer_insert   RTX_CM4.lib(rt_cmsis.o)
    0x08001838   0x08001838   0x00000088   Code   RO         1143    i.rt_tsk_create     RTX_CM4.lib(rt_task.o)
    0x080018c0   0x080018c0   0x0000017c   Code   RO         1144    i.rt_tsk_delete     RTX_CM4.lib(rt_task.o)
    0x08001a3c   0x08001a3c   0x0000007c   Code   RO         1146    i.rt_tsk_prio       RTX_CM4.lib(rt_task.o)
    0x08001ab8   0x08001ab8   0x00000010   Code   RO         1147    i.rt_tsk_self       RTX_CM4.lib(rt_task.o)
    0x08001ac8   0x08001ac8   0x00000070   Code   RO          574    i.svcKernelInitialize  RTX_CM4.lib(rt_cmsis.o)
    0x08001b38   0x08001b38   0x00000048   Code   RO          576    i.svcKernelStart    RTX_CM4.lib(rt_cmsis.o)
    0x08001b80   0x08001b80   0x00000024   Code   RO          579    i.svcMessageCreate  RTX_CM4.lib(rt_cmsis.o)
    0x08001ba4   0x08001ba4   0x0000003a   Code   RO          580    i.svcMessageGet     RTX_CM4.lib(rt_cmsis.o)
    0x08001bde   0x08001bde   0x00000002   PAD
    0x08001be0   0x08001be0   0x0000006c   Code   RO          594    i.svcThreadCreate   RTX_CM4.lib(rt_cmsis.o)
    0x08001c4c   0x08001c4c   0x0000001c   Code   RO          595    i.svcThreadGetId    RTX_CM4.lib(rt_cmsis.o)
    0x08001c68   0x08001c68   0x00000038   Code   RO          598    i.svcThreadTerminate  RTX_CM4.lib(rt_cmsis.o)
    0x08001ca0   0x08001ca0   0x00000018   Code   RO          600    i.svcTimerCall      RTX_CM4.lib(rt_cmsis.o)
    0x08001cb8   0x08001cb8   0x0000005c   Code   RO          609    i.sysTimerTick      RTX_CM4.lib(rt_cmsis.o)
    0x08001d14   0x08001d14   0x00000014   Code   RO          239    i.system_enter_run  system_ctboard.o
    0x08001d28   0x08001d28   0x0000001c   Code   RO           28    i.thread1           threads_roundrobin.o
    0x08001d44   0x08001d44   0x0000001c   Code   RO           29    i.thread2           threads_roundrobin.o
    0x08001d60   0x08001d60   0x00000058   Code   RO           30    i.threads_init      threads_roundrobin.o
    0x08001db8   0x08001db8   0x00000070   Code   RO           77    i.uart_init         uart.o
    0x08001e28   0x08001e28   0x0000000a   Code   RO           31    i.wait_blocking     threads_roundrobin.o
    0x08001e32   0x08001e32   0x00000002   PAD
    0x08001e34   0x08001e34   0x00000020   Data   RO           32    .constdata          threads_roundrobin.o
    0x08001e54   0x08001e54   0x00000068   Data   RO          102    .constdata          rtx_conf_cm.o


    Execution Region RW_IRAM1 (Exec base: 0x20000000, Load base: 0x08001ebc, Size: 0x00002c70, Max: 0x00030000, ABSOLUTE)

    Exec Addr    Load Addr    Size         Type   Attr      Idx    E Section Name        Object

    0x20000000   0x08001ebc   0x00000014   Data   RW          103    .data               rtx_conf_cm.o
    0x20000014   0x08001ed0   0x00000008   Data   RW          612    .data               RTX_CM4.lib(rt_cmsis.o)
    0x2000001c   0x08001ed8   0x00000008   Data   RW         1149    .data               RTX_CM4.lib(rt_task.o)
    0x20000024   0x08001ee0   0x00000008   Data   RW         1268    .data               RTX_CM4.lib(rt_system.o)
    0x2000002c   0x08001ee8   0x00000004   Data   RW         1558    .data               RTX_CM4.lib(rt_time.o)
    0x20000030   0x08001eec   0x00000008   Data   RW         1589    .data               RTX_CM4.lib(rt_robin.o)
    0x20000038   0x08001ef4   0x00000001   Data   RW         1669    .data               RTX_CM4.lib(hal_cm.o)
    0x20000039   0x08001ef5   0x00000007   PAD
    0x20000040        -       0x00000bc8   Zero   RW          101    .bss                rtx_conf_cm.o
    0x20000c08        -       0x00000034   Zero   RW         1148    .bss                RTX_CM4.lib(rt_task.o)
    0x20000c3c        -       0x00000030   Zero   RW         1398    .bss                RTX_CM4.lib(rt_list.o)
    0x20000c6c   0x08001ef5   0x00000004   PAD
    0x20000c70        -       0x00002000   Zero   RW          227    STACK               startup_ctboard.o


==============================================================================

Image component sizes


      Code (inc. data)   RO Data    RW Data    ZI Data      Debug   Object Name

       124         50          0          0          0        456   datainit_ctboard.o
       446         10          0          0          0       4333   hal_gpio.o
         6          0          0          0          0        568   hal_pwr.o
       828         52          0          0          0       2708   hal_rcc.o
        16          0          0          0          0       9041   main.o
        98         20        104         20       3016       8899   rtx_conf_cm.o
        36          8        428          0       8192        856   startup_ctboard.o
       236         20          0          0          0       3994   system_ctboard.o
       154         32         32          0          0      38425   threads_roundrobin.o
       112         12          0          0          0        504   uart.o

    ----------------------------------------------------------------------
      2068        204        564         20      11208      69784   Object Totals
         0          0          0          0          0          0   (incl. Generated)
        12          0          0          0          0          0   (incl. Padding)

    ----------------------------------------------------------------------

      Code (inc. data)   RO Data    RW Data    ZI Data      Debug   Library Member Name

       268         24          0          1          0       4524   hal_cm.o
       408         34          0          0          0        824   hal_cm4.o
      1110        138          0          8          0      34453   rt_cmsis.o
        80          4          0          0          0        709   rt_event.o
       530         34          0          0         48       8685   rt_list.o
       554         10          0          0          0       4237   rt_mailbox.o
       140          0          0          0          0       2069   rt_membox.o
       128          0          0          0          0       2451   rt_memory.o
       336         14          0          0          0       1739   rt_mutex.o
        96         22          0          8          0       1254   rt_robin.o
        52          4          0          0          0        621   rt_semaphore.o
       298         52          0          8          0       6511   rt_system.o
      1216        174          0          8         52      10129   rt_task.o
         0          0          0          4          0        214   rt_time.o
         4          4          0          0          0        208   svc_table.o

    ----------------------------------------------------------------------
      5236        514          0         40        108      78628   Library Totals
        16          0          0          3          8          0   (incl. Padding)

    ----------------------------------------------------------------------

      Code (inc. data)   RO Data    RW Data    ZI Data      Debug   Library Name

      5220        514          0         37        100      78628   RTX_CM4.lib

    ----------------------------------------------------------------------
      5236        514          0         40        108      78628   Library Totals

    ----------------------------------------------------------------------

==============================================================================


      Code (inc. data)   RO Data    RW Data    ZI Data      Debug   

      7304        718        564         60      11316     139212   Grand Totals
      7304        718        564         60      11316     139212   ELF Image Totals
      7304        718        564         60          0          0   ROM Totals

==============================================================================

    Total RO  Size (Code + RO Data)                 7868 (   7.68kB)
    Total RW  Size (RW Data + ZI Data)             11376 (  11.11kB)
    Total ROM Size (Code + RO Data + RW Data)       7928 (   7.74kB)

==============================================================================

